{
  "contractName": "SupplyChain",
  "abi": [
    {
      "inputs": [],
      "stateMutability": "payable",
      "type": "constructor",
      "payable": true
    },
    {
      "anonymous": false,
      "inputs": [
        {
          "indexed": true,
          "internalType": "address",
          "name": "account",
          "type": "address"
        }
      ],
      "name": "ConsumerAdded",
      "type": "event"
    },
    {
      "anonymous": false,
      "inputs": [
        {
          "indexed": true,
          "internalType": "address",
          "name": "account",
          "type": "address"
        }
      ],
      "name": "ConsumerRemoved",
      "type": "event"
    },
    {
      "anonymous": false,
      "inputs": [
        {
          "indexed": true,
          "internalType": "address",
          "name": "account",
          "type": "address"
        }
      ],
      "name": "DistributorAdded",
      "type": "event"
    },
    {
      "anonymous": false,
      "inputs": [
        {
          "indexed": true,
          "internalType": "address",
          "name": "account",
          "type": "address"
        }
      ],
      "name": "DistributorRemoved",
      "type": "event"
    },
    {
      "anonymous": false,
      "inputs": [
        {
          "indexed": true,
          "internalType": "address",
          "name": "account",
          "type": "address"
        }
      ],
      "name": "FarmerAdded",
      "type": "event"
    },
    {
      "anonymous": false,
      "inputs": [
        {
          "indexed": true,
          "internalType": "address",
          "name": "account",
          "type": "address"
        }
      ],
      "name": "FarmerRemoved",
      "type": "event"
    },
    {
      "anonymous": false,
      "inputs": [
        {
          "indexed": false,
          "internalType": "uint256",
          "name": "upc",
          "type": "uint256"
        }
      ],
      "name": "ForSale",
      "type": "event"
    },
    {
      "anonymous": false,
      "inputs": [
        {
          "indexed": false,
          "internalType": "uint256",
          "name": "upc",
          "type": "uint256"
        }
      ],
      "name": "Harvested",
      "type": "event"
    },
    {
      "anonymous": false,
      "inputs": [
        {
          "indexed": false,
          "internalType": "uint256",
          "name": "upc",
          "type": "uint256"
        }
      ],
      "name": "Packed",
      "type": "event"
    },
    {
      "anonymous": false,
      "inputs": [
        {
          "indexed": false,
          "internalType": "uint256",
          "name": "upc",
          "type": "uint256"
        }
      ],
      "name": "Processed",
      "type": "event"
    },
    {
      "anonymous": false,
      "inputs": [
        {
          "indexed": false,
          "internalType": "uint256",
          "name": "upc",
          "type": "uint256"
        }
      ],
      "name": "Purchased",
      "type": "event"
    },
    {
      "anonymous": false,
      "inputs": [
        {
          "indexed": false,
          "internalType": "uint256",
          "name": "upc",
          "type": "uint256"
        }
      ],
      "name": "Received",
      "type": "event"
    },
    {
      "anonymous": false,
      "inputs": [
        {
          "indexed": true,
          "internalType": "address",
          "name": "account",
          "type": "address"
        }
      ],
      "name": "RetailerAdded",
      "type": "event"
    },
    {
      "anonymous": false,
      "inputs": [
        {
          "indexed": true,
          "internalType": "address",
          "name": "account",
          "type": "address"
        }
      ],
      "name": "RetailerRemoved",
      "type": "event"
    },
    {
      "anonymous": false,
      "inputs": [
        {
          "indexed": false,
          "internalType": "uint256",
          "name": "upc",
          "type": "uint256"
        }
      ],
      "name": "Shipped",
      "type": "event"
    },
    {
      "anonymous": false,
      "inputs": [
        {
          "indexed": false,
          "internalType": "uint256",
          "name": "upc",
          "type": "uint256"
        }
      ],
      "name": "Sold",
      "type": "event"
    },
    {
      "anonymous": false,
      "inputs": [
        {
          "indexed": true,
          "internalType": "address",
          "name": "oldOwner",
          "type": "address"
        },
        {
          "indexed": true,
          "internalType": "address",
          "name": "newOwner",
          "type": "address"
        }
      ],
      "name": "TransferOwnership",
      "type": "event"
    },
    {
      "inputs": [
        {
          "internalType": "address",
          "name": "account",
          "type": "address"
        }
      ],
      "name": "addConsumer",
      "outputs": [],
      "stateMutability": "nonpayable",
      "type": "function"
    },
    {
      "inputs": [
        {
          "internalType": "address",
          "name": "account",
          "type": "address"
        }
      ],
      "name": "addDistributor",
      "outputs": [],
      "stateMutability": "nonpayable",
      "type": "function"
    },
    {
      "inputs": [
        {
          "internalType": "address",
          "name": "account",
          "type": "address"
        }
      ],
      "name": "addFarmer",
      "outputs": [],
      "stateMutability": "nonpayable",
      "type": "function"
    },
    {
      "inputs": [
        {
          "internalType": "address",
          "name": "account",
          "type": "address"
        }
      ],
      "name": "addRetailer",
      "outputs": [],
      "stateMutability": "nonpayable",
      "type": "function"
    },
    {
      "inputs": [
        {
          "internalType": "address",
          "name": "account",
          "type": "address"
        }
      ],
      "name": "isConsumer",
      "outputs": [
        {
          "internalType": "bool",
          "name": "",
          "type": "bool"
        }
      ],
      "stateMutability": "view",
      "type": "function",
      "constant": true
    },
    {
      "inputs": [
        {
          "internalType": "address",
          "name": "account",
          "type": "address"
        }
      ],
      "name": "isDistributor",
      "outputs": [
        {
          "internalType": "bool",
          "name": "",
          "type": "bool"
        }
      ],
      "stateMutability": "view",
      "type": "function",
      "constant": true
    },
    {
      "inputs": [
        {
          "internalType": "address",
          "name": "account",
          "type": "address"
        }
      ],
      "name": "isFarmer",
      "outputs": [
        {
          "internalType": "bool",
          "name": "",
          "type": "bool"
        }
      ],
      "stateMutability": "view",
      "type": "function",
      "constant": true
    },
    {
      "inputs": [],
      "name": "isOwner",
      "outputs": [
        {
          "internalType": "bool",
          "name": "",
          "type": "bool"
        }
      ],
      "stateMutability": "view",
      "type": "function",
      "constant": true
    },
    {
      "inputs": [
        {
          "internalType": "address",
          "name": "account",
          "type": "address"
        }
      ],
      "name": "isRetailer",
      "outputs": [
        {
          "internalType": "bool",
          "name": "",
          "type": "bool"
        }
      ],
      "stateMutability": "view",
      "type": "function",
      "constant": true
    },
    {
      "inputs": [],
      "name": "owner",
      "outputs": [
        {
          "internalType": "address",
          "name": "",
          "type": "address"
        }
      ],
      "stateMutability": "view",
      "type": "function",
      "constant": true
    },
    {
      "inputs": [],
      "name": "renounceConsumer",
      "outputs": [],
      "stateMutability": "nonpayable",
      "type": "function"
    },
    {
      "inputs": [],
      "name": "renounceDistributor",
      "outputs": [],
      "stateMutability": "nonpayable",
      "type": "function"
    },
    {
      "inputs": [],
      "name": "renounceFarmer",
      "outputs": [],
      "stateMutability": "nonpayable",
      "type": "function"
    },
    {
      "inputs": [],
      "name": "renounceOwnership",
      "outputs": [],
      "stateMutability": "nonpayable",
      "type": "function"
    },
    {
      "inputs": [],
      "name": "renounceRetailer",
      "outputs": [],
      "stateMutability": "nonpayable",
      "type": "function"
    },
    {
      "inputs": [
        {
          "internalType": "address",
          "name": "newOwner",
          "type": "address"
        }
      ],
      "name": "transferOwnership",
      "outputs": [],
      "stateMutability": "nonpayable",
      "type": "function"
    },
    {
      "inputs": [
        {
          "internalType": "uint256",
          "name": "_upc",
          "type": "uint256"
        },
        {
          "internalType": "address",
          "name": "_originFarmerID",
          "type": "address"
        },
        {
          "internalType": "string",
          "name": "_originFarmName",
          "type": "string"
        },
        {
          "internalType": "string",
          "name": "_originFarmInformation",
          "type": "string"
        },
        {
          "internalType": "string",
          "name": "_originFarmLatitude",
          "type": "string"
        },
        {
          "internalType": "string",
          "name": "_originFarmLongitude",
          "type": "string"
        },
        {
          "internalType": "string",
          "name": "_productNotes",
          "type": "string"
        }
      ],
      "name": "harvestItem",
      "outputs": [],
      "stateMutability": "nonpayable",
      "type": "function"
    },
    {
      "inputs": [
        {
          "internalType": "uint256",
          "name": "_upc",
          "type": "uint256"
        }
      ],
      "name": "processItem",
      "outputs": [],
      "stateMutability": "nonpayable",
      "type": "function"
    },
    {
      "inputs": [
        {
          "internalType": "uint256",
          "name": "_upc",
          "type": "uint256"
        }
      ],
      "name": "packItem",
      "outputs": [],
      "stateMutability": "nonpayable",
      "type": "function"
    },
    {
      "inputs": [
        {
          "internalType": "uint256",
          "name": "_upc",
          "type": "uint256"
        },
        {
          "internalType": "uint256",
          "name": "_price",
          "type": "uint256"
        }
      ],
      "name": "sellItem",
      "outputs": [],
      "stateMutability": "nonpayable",
      "type": "function"
    },
    {
      "inputs": [
        {
          "internalType": "uint256",
          "name": "_upc",
          "type": "uint256"
        },
        {
          "internalType": "uint256",
          "name": "_retailerPrice",
          "type": "uint256"
        }
      ],
      "name": "buyItem",
      "outputs": [],
      "stateMutability": "payable",
      "type": "function",
      "payable": true
    },
    {
      "inputs": [
        {
          "internalType": "uint256",
          "name": "_upc",
          "type": "uint256"
        },
        {
          "internalType": "address",
          "name": "_retailerID",
          "type": "address"
        }
      ],
      "name": "shipItem",
      "outputs": [],
      "stateMutability": "nonpayable",
      "type": "function"
    },
    {
      "inputs": [
        {
          "internalType": "uint256",
          "name": "_upc",
          "type": "uint256"
        },
        {
          "internalType": "uint256",
          "name": "_consumerPrice",
          "type": "uint256"
        }
      ],
      "name": "receiveItem",
      "outputs": [],
      "stateMutability": "payable",
      "type": "function",
      "payable": true
    },
    {
      "inputs": [
        {
          "internalType": "uint256",
          "name": "_upc",
          "type": "uint256"
        }
      ],
      "name": "purchaseItem",
      "outputs": [],
      "stateMutability": "payable",
      "type": "function",
      "payable": true
    },
    {
      "inputs": [],
      "name": "getRoles",
      "outputs": [
        {
          "internalType": "bool",
          "name": "owner",
          "type": "bool"
        },
        {
          "internalType": "bool",
          "name": "farmer",
          "type": "bool"
        },
        {
          "internalType": "bool",
          "name": "distributor",
          "type": "bool"
        },
        {
          "internalType": "bool",
          "name": "retailer",
          "type": "bool"
        },
        {
          "internalType": "bool",
          "name": "consumer",
          "type": "bool"
        }
      ],
      "stateMutability": "view",
      "type": "function",
      "constant": true
    },
    {
      "inputs": [
        {
          "internalType": "uint256",
          "name": "_upc",
          "type": "uint256"
        }
      ],
      "name": "fetchItemBufferOne",
      "outputs": [
        {
          "internalType": "uint256",
          "name": "itemSKU",
          "type": "uint256"
        },
        {
          "internalType": "uint256",
          "name": "itemUPC",
          "type": "uint256"
        },
        {
          "internalType": "address",
          "name": "ownerID",
          "type": "address"
        },
        {
          "internalType": "address",
          "name": "originFarmerID",
          "type": "address"
        },
        {
          "internalType": "string",
          "name": "originFarmName",
          "type": "string"
        },
        {
          "internalType": "string",
          "name": "originFarmInformation",
          "type": "string"
        },
        {
          "internalType": "string",
          "name": "originFarmLatitude",
          "type": "string"
        },
        {
          "internalType": "string",
          "name": "originFarmLongitude",
          "type": "string"
        }
      ],
      "stateMutability": "view",
      "type": "function",
      "constant": true
    },
    {
      "inputs": [
        {
          "internalType": "uint256",
          "name": "_upc",
          "type": "uint256"
        }
      ],
      "name": "fetchItemBufferTwo",
      "outputs": [
        {
          "internalType": "uint256",
          "name": "itemSKU",
          "type": "uint256"
        },
        {
          "internalType": "uint256",
          "name": "itemUPC",
          "type": "uint256"
        },
        {
          "internalType": "uint256",
          "name": "productID",
          "type": "uint256"
        },
        {
          "internalType": "string",
          "name": "productNotes",
          "type": "string"
        },
        {
          "internalType": "uint256",
          "name": "productPrice",
          "type": "uint256"
        },
        {
          "internalType": "uint256",
          "name": "itemState",
          "type": "uint256"
        },
        {
          "internalType": "address",
          "name": "distributorID",
          "type": "address"
        },
        {
          "internalType": "address",
          "name": "retailerID",
          "type": "address"
        },
        {
          "internalType": "address",
          "name": "consumerID",
          "type": "address"
        }
      ],
      "stateMutability": "view",
      "type": "function",
      "constant": true
    },
    {
      "inputs": [
        {
          "internalType": "uint256",
          "name": "_upc",
          "type": "uint256"
        }
      ],
      "name": "fetchItemBufferThree",
      "outputs": [
        {
          "internalType": "uint256",
          "name": "itemSKU",
          "type": "uint256"
        },
        {
          "internalType": "uint256",
          "name": "itemUPC",
          "type": "uint256"
        },
        {
          "internalType": "uint256",
          "name": "productID",
          "type": "uint256"
        },
        {
          "internalType": "string",
          "name": "productNotes",
          "type": "string"
        },
        {
          "internalType": "uint256",
          "name": "productPrice",
          "type": "uint256"
        },
        {
          "internalType": "uint256",
          "name": "retailerPrice",
          "type": "uint256"
        },
        {
          "internalType": "uint256",
          "name": "consumerPrice",
          "type": "uint256"
        },
        {
          "internalType": "uint256",
          "name": "itemState",
          "type": "uint256"
        }
      ],
      "stateMutability": "view",
      "type": "function",
      "constant": true
    },
    {
      "inputs": [
        {
          "internalType": "uint256",
          "name": "_upc",
          "type": "uint256"
        },
        {
          "internalType": "uint256",
          "name": "_page",
          "type": "uint256"
        }
      ],
      "name": "getItemsHistory",
      "outputs": [
        {
          "internalType": "uint256",
          "name": "totalTransactions",
          "type": "uint256"
        },
        {
          "internalType": "uint256",
          "name": "blockNo1",
          "type": "uint256"
        },
        {
          "internalType": "uint256",
          "name": "blockNo2",
          "type": "uint256"
        },
        {
          "internalType": "uint256",
          "name": "blockNo3",
          "type": "uint256"
        },
        {
          "internalType": "uint256",
          "name": "blockNo4",
          "type": "uint256"
        },
        {
          "internalType": "uint256",
          "name": "blockNo5",
          "type": "uint256"
        },
        {
          "internalType": "uint256",
          "name": "blockNo6",
          "type": "uint256"
        },
        {
          "internalType": "uint256",
          "name": "blockNo7",
          "type": "uint256"
        },
        {
          "internalType": "uint256",
          "name": "blockNo8",
          "type": "uint256"
        },
        {
          "internalType": "uint256",
          "name": "blockNo9",
          "type": "uint256"
        },
        {
          "internalType": "uint256",
          "name": "blockNo10",
          "type": "uint256"
        }
      ],
      "stateMutability": "view",
      "type": "function",
      "constant": true
    }
  ],
  "bytecode": "0x6080604052336000806101000a81548173ffffffffffffffffffffffffffffffffffffffff021916908373ffffffffffffffffffffffffffffffffffffffff16021790555060008054906101000a900473ffffffffffffffffffffffffffffffffffffffff1673ffffffffffffffffffffffffffffffffffffffff16600073ffffffffffffffffffffffffffffffffffffffff167f5c486528ec3e3f0ea91181cff8116f02bfa350e03b8b6f12e00765adbb5af85c60405160405180910390a3620000d0336200011960201b60201c565b620000e1336200017a60201b60201c565b620000f233620001db60201b60201c565b62000103336200023c60201b60201c565b60016006819055506001600581905550620003e6565b620001348160016200029d60201b620027b01790919060201c565b8073ffffffffffffffffffffffffffffffffffffffff167f28b26e7a3d20aedbc5f8f2ebf7da671c0491723a2b78f47a097b0e46dee0714260405160405180910390a250565b620001958160026200029d60201b620027b01790919060201c565b8073ffffffffffffffffffffffffffffffffffffffff167fddbf200aa634dc3fb81cfd68583dd1040d1c751d335e1d86b631bde3e977fea860405160405180910390a250565b620001f68160036200029d60201b620027b01790919060201c565b8073ffffffffffffffffffffffffffffffffffffffff167f2e0ded4123377a3c2bc9a26f1717655a129e2f20752924d42e730ec89c83dbd060405160405180910390a250565b620002578160046200029d60201b620027b01790919060201c565b8073ffffffffffffffffffffffffffffffffffffffff167f71ae26cad02663e3d92efd6ec56031a80d74a20c0ab4183faa8bf262261c9baa60405160405180910390a250565b600073ffffffffffffffffffffffffffffffffffffffff168173ffffffffffffffffffffffffffffffffffffffff161415620002d857600080fd5b620002ea82826200035360201b60201c565b15620002f557600080fd5b60018260000160008373ffffffffffffffffffffffffffffffffffffffff1673ffffffffffffffffffffffffffffffffffffffff16815260200190815260200160002060006101000a81548160ff0219169083151502179055505050565b60008073ffffffffffffffffffffffffffffffffffffffff168273ffffffffffffffffffffffffffffffffffffffff1614156200038f57600080fd5b8260000160008373ffffffffffffffffffffffffffffffffffffffff1673ffffffffffffffffffffffffffffffffffffffff16815260200190815260200160002060009054906101000a900460ff16905092915050565b61380d80620003f66000396000f3fe6080604052600436106101c25760003560e01c806389394e35116100f7578063b50f60e711610095578063d38ea5bf11610064578063d38ea5bf14610630578063db0e6a2f1461064c578063f2fde38b14610663578063f30fc4801461068c576101c2565b8063b50f60e714610585578063b9429069146105a1578063bb4f288d146105de578063bdd8a6a814610607576101c2565b80638f0c86fa116100d15780638f0c86fa146104bd5780638f32d59b146104fa5780639979c00914610525578063acd5fba614610541576101c2565b806389394e35146104225780638da5cb5b146104695780638ec4f50514610494576101c2565b8063710613981161016457806377c459131161013e57806377c459131461036157806380c3f96d146103a557806380fc0ce4146103ce578063834ff739146103e5576101c2565b806371061398146102f2578063715018a6146103215780637250e22414610338576101c2565b80635da09b88116101a05780635da09b881461024257806361e6982d1461027f578063644241db1461029657806366225ff9146102ad576101c2565b8063112940f9146101c75780632d923561146101f057806349dae76614610219575b600080fd5b3480156101d357600080fd5b506101ee60048036038101906101e99190612e75565b6106b5565b005b3480156101fc57600080fd5b5061021760048036038101906102129190612ed8565b6106d3565b005b34801561022557600080fd5b50610240600480360381019061023b9190612f18565b61087a565b005b34801561024e57600080fd5b5061026960048036038101906102649190612e75565b610a05565b6040516102769190612f60565b60405180910390f35b34801561028b57600080fd5b50610294610a22565b005b3480156102a257600080fd5b506102ab610a2d565b005b3480156102b957600080fd5b506102d460048036038101906102cf9190612f18565b610a38565b6040516102e999989796959493929190613032565b60405180910390f35b3480156102fe57600080fd5b50610307610c3c565b6040516103189594939291906130c6565b60405180910390f35b34801561032d57600080fd5b50610336610c81565b005b34801561034457600080fd5b5061035f600480360381019061035a9190612e75565b610d50565b005b34801561036d57600080fd5b5061038860048036038101906103839190612f18565b610d6e565b60405161039c989796959493929190613119565b60405180910390f35b3480156103b157600080fd5b506103cc60048036038101906103c79190612e75565b6110ad565b005b3480156103da57600080fd5b506103e36110cb565b005b3480156103f157600080fd5b5061040c60048036038101906104079190612e75565b6110d6565b6040516104199190612f60565b60405180910390f35b34801561042e57600080fd5b5061044960048036038101906104449190612ed8565b6110f3565b6040516104609b9a999897969594939291906131b3565b60405180910390f35b34801561047557600080fd5b5061047e61140b565b60405161048b919061325e565b60405180910390f35b3480156104a057600080fd5b506104bb60048036038101906104b69190612e75565b611434565b005b3480156104c957600080fd5b506104e460048036038101906104df9190612e75565b611452565b6040516104f19190612f60565b60405180910390f35b34801561050657600080fd5b5061050f61146f565b60405161051c9190612f60565b60405180910390f35b61053f600480360381019061053a9190612ed8565b6114c6565b005b34801561054d57600080fd5b5061056860048036038101906105639190612f18565b6117cf565b60405161057c989796959493929190613279565b60405180910390f35b61059f600480360381019061059a9190612ed8565b611956565b005b3480156105ad57600080fd5b506105c860048036038101906105c39190612e75565b611c7a565b6040516105d59190612f60565b60405180910390f35b3480156105ea57600080fd5b50610605600480360381019061060091906132fe565b611c97565b005b34801561061357600080fd5b5061062e60048036038101906106299190613473565b611e8a565b005b61064a60048036038101906106459190612f18565b612311565b005b34801561065857600080fd5b506106616125fd565b005b34801561066f57600080fd5b5061068a60048036038101906106859190612e75565b612608565b005b34801561069857600080fd5b506106b360048036038101906106ae9190612f18565b612625565b005b6106be336110d6565b6106c757600080fd5b6106d08161285c565b50565b81600260078111156106e8576106e76135a1565b5b60076000838152602001908152602001600020600b0160009054906101000a900460ff16600781111561071e5761071d6135a1565b5b1461072857600080fd5b6007600084815260200190815260200160002060020160009054906101000a900473ffffffffffffffffffffffffffffffffffffffff168073ffffffffffffffffffffffffffffffffffffffff163373ffffffffffffffffffffffffffffffffffffffff161461079757600080fd5b6107a033611c7a565b6107a957600080fd5b600360076000868152602001908152602001600020600b0160006101000a81548160ff021916908360078111156107e3576107e26135a1565b5b02179055508260076000868152602001908152602001600020600a01819055507fa96ae0fc3224ebd79eebfe54bd130cc9cb94416cddd1f2386115e00b725324688460405161083291906135d0565b60405180910390a16008600085815260200190815260200160002043908060018154018082558091505060019003906000526020600020016000909190919091505550505050565b806000600781111561088f5761088e6135a1565b5b60076000838152602001908152602001600020600b0160009054906101000a900460ff1660078111156108c5576108c46135a1565b5b146108cf57600080fd5b6007600083815260200190815260200160002060020160009054906101000a900473ffffffffffffffffffffffffffffffffffffffff168073ffffffffffffffffffffffffffffffffffffffff163373ffffffffffffffffffffffffffffffffffffffff161461093e57600080fd5b61094733611c7a565b61095057600080fd5b600160076000858152602001908152602001600020600b0160006101000a81548160ff0219169083600781111561098a576109896135a1565b5b02179055507f5afe3b1bf87069693c075da5c22a98d63d1aef98a30dbbe538d0781a98b77ee5836040516109be91906135d0565b60405180910390a160086000848152602001908152602001600020439080600181540180825580915050600190039060005260206000200160009091909190915055505050565b6000610a1b8260046128b690919063ffffffff16565b9050919050565b610a2b33612948565b565b610a36336129a2565b565b600080600060606000806000806000600760008b8152602001908152602001600020600001549850600760008b8152602001908152602001600020600101549750600760008b8152602001908152602001600020600801549650600760008b81526020019081526020016000206009018054610ab39061361a565b80601f0160208091040260200160405190810160405280929190818152602001828054610adf9061361a565b8015610b2c5780601f10610b0157610100808354040283529160200191610b2c565b820191906000526020600020905b815481529060010190602001808311610b0f57829003601f168201915b50505050509550600760008b8152602001908152602001600020600a01549450600760008b8152602001908152602001600020600b0160009054906101000a900460ff166007811115610b8257610b816135a1565b5b9350600760008b8152602001908152602001600020600b0160019054906101000a900473ffffffffffffffffffffffffffffffffffffffff169250600760008b8152602001908152602001600020600d0160009054906101000a900473ffffffffffffffffffffffffffffffffffffffff169150600760008b8152602001908152602001600020600f0160009054906101000a900473ffffffffffffffffffffffffffffffffffffffff1690509193959799909294969850565b6000806000806000610c4c61146f565b9450610c5733611c7a565b9350610c6233611452565b9250610c6d33610a05565b9150610c78336110d6565b90509091929394565b610c8961146f565b610c9257600080fd5b600073ffffffffffffffffffffffffffffffffffffffff1660008054906101000a900473ffffffffffffffffffffffffffffffffffffffff1673ffffffffffffffffffffffffffffffffffffffff167f5c486528ec3e3f0ea91181cff8116f02bfa350e03b8b6f12e00765adbb5af85c60405160405180910390a360008060006101000a81548173ffffffffffffffffffffffffffffffffffffffff021916908373ffffffffffffffffffffffffffffffffffffffff160217905550565b610d5933611452565b610d6257600080fd5b610d6b816129fc565b50565b600080600080606080606080600760008a8152602001908152602001600020600001549750600760008a8152602001908152602001600020600101549650600760008a815260200190815260200160002060020160009054906101000a900473ffffffffffffffffffffffffffffffffffffffff169550600760008a815260200190815260200160002060030160009054906101000a900473ffffffffffffffffffffffffffffffffffffffff169450600760008a81526020019081526020016000206004018054610e3f9061361a565b80601f0160208091040260200160405190810160405280929190818152602001828054610e6b9061361a565b8015610eb85780601f10610e8d57610100808354040283529160200191610eb8565b820191906000526020600020905b815481529060010190602001808311610e9b57829003601f168201915b50505050509350600760008a81526020019081526020016000206005018054610ee09061361a565b80601f0160208091040260200160405190810160405280929190818152602001828054610f0c9061361a565b8015610f595780601f10610f2e57610100808354040283529160200191610f59565b820191906000526020600020905b815481529060010190602001808311610f3c57829003601f168201915b50505050509250600760008a81526020019081526020016000206006018054610f819061361a565b80601f0160208091040260200160405190810160405280929190818152602001828054610fad9061361a565b8015610ffa5780601f10610fcf57610100808354040283529160200191610ffa565b820191906000526020600020905b815481529060010190602001808311610fdd57829003601f168201915b50505050509150600760008a815260200190815260200160002060070180546110229061361a565b80601f016020809104026020016040519081016040528092919081815260200182805461104e9061361a565b801561109b5780601f106110705761010080835404028352916020019161109b565b820191906000526020600020905b81548152906001019060200180831161107e57829003601f168201915b50505050509050919395975091939597565b6110b633611c7a565b6110bf57600080fd5b6110c881612a56565b50565b6110d433612ab0565b565b60006110ec8260016128b690919063ffffffff16565b9050919050565b6000806000806000806000806000806000600860008e8152602001908152602001600020805490509a506000600a8d61112c919061367b565b9050808c111561116957600860008f8152602001908152602001600020818154811061115b5761115a6136d5565b5b90600052602060002001549a505b808061117490613704565b915050808c11156111b257600860008f815260200190815260200160002081815481106111a4576111a36136d5565b5b906000526020600020015499505b80806111bd90613704565b915050808c11156111fb57600860008f815260200190815260200160002081815481106111ed576111ec6136d5565b5b906000526020600020015498505b808061120690613704565b915050808c111561124457600860008f81526020019081526020016000208181548110611236576112356136d5565b5b906000526020600020015497505b808061124f90613704565b915050808c111561128d57600860008f8152602001908152602001600020818154811061127f5761127e6136d5565b5b906000526020600020015496505b808061129890613704565b915050808c11156112d657600860008f815260200190815260200160002081815481106112c8576112c76136d5565b5b906000526020600020015495505b80806112e190613704565b915050808c111561131f57600860008f81526020019081526020016000208181548110611311576113106136d5565b5b906000526020600020015494505b808061132a90613704565b915050808c111561136857600860008f8152602001908152602001600020818154811061135a576113596136d5565b5b906000526020600020015493505b808061137390613704565b915050808c11156113b157600860008f815260200190815260200160002081815481106113a3576113a26136d5565b5b906000526020600020015492505b80806113bc90613704565b915050808c11156113fa57600860008f815260200190815260200160002081815481106113ec576113eb6136d5565b5b906000526020600020015491505b509295989b509295989b9093969950565b60008060009054906101000a900473ffffffffffffffffffffffffffffffffffffffff16905090565b61143d33610a05565b61144657600080fd5b61144f81612b0a565b50565b60006114688260026128b690919063ffffffff16565b9050919050565b60008060009054906101000a900473ffffffffffffffffffffffffffffffffffffffff1673ffffffffffffffffffffffffffffffffffffffff163373ffffffffffffffffffffffffffffffffffffffff1614905090565b81600360078111156114db576114da6135a1565b5b60076000838152602001908152602001600020600b0160009054906101000a900460ff166007811115611511576115106135a1565b5b1461151b57600080fd5b61152433611452565b61152d57600080fd5b60076000848152602001908152602001600020600a01548034101561155157600080fd5b60076000858152602001908152602001600020600a0154336007600087815260200190815260200160002060020160006101000a81548173ffffffffffffffffffffffffffffffffffffffff021916908373ffffffffffffffffffffffffffffffffffffffff1602179055503360076000878152602001908152602001600020600b0160016101000a81548173ffffffffffffffffffffffffffffffffffffffff021916908373ffffffffffffffffffffffffffffffffffffffff160217905550600460076000878152602001908152602001600020600b0160006101000a81548160ff0219169083600781111561164c5761164b6135a1565b5b02179055508360076000878152602001908152602001600020600c01819055506007600086815260200190815260200160002060030160009054906101000a900473ffffffffffffffffffffffffffffffffffffffff1673ffffffffffffffffffffffffffffffffffffffff166108fc60076000888152602001908152602001600020600a01549081150290604051600060405180830381858888f193505050501580156116fe573d6000803e3d6000fd5b507f92f64ca637d023f354075a4be751b169c1a8a9ccb6d33cdd0cb35205439957278560405161172e91906135d0565b60405180910390a1600860008681526020019081526020016000204390806001815401808255809150506001900390600052602060002001600090919091909150556000813461177e919061374d565b90503373ffffffffffffffffffffffffffffffffffffffff166108fc829081150290604051600060405180830381858888f193505050501580156117c6573d6000803e3d6000fd5b50505050505050565b60008060006060600080600080600760008a8152602001908152602001600020600001549750600760008a8152602001908152602001600020600101549650600760008a8152602001908152602001600020600801549550600760008a815260200190815260200160002060090180546118489061361a565b80601f01602080910402602001604051908101604052809291908181526020018280546118749061361a565b80156118c15780601f10611896576101008083540402835291602001916118c1565b820191906000526020600020905b8154815290600101906020018083116118a457829003601f168201915b50505050509450600760008a8152602001908152602001600020600a01549350600760008a8152602001908152602001600020600c01549250600760008a8152602001908152602001600020600e01549150600760008a8152602001908152602001600020600b0160009054906101000a900460ff166007811115611949576119486135a1565b5b9050919395975091939597565b816005600781111561196b5761196a6135a1565b5b60076000838152602001908152602001600020600b0160009054906101000a900460ff1660078111156119a1576119a06135a1565b5b146119ab57600080fd5b60076000848152602001908152602001600020600d0160009054906101000a900473ffffffffffffffffffffffffffffffffffffffff168073ffffffffffffffffffffffffffffffffffffffff163373ffffffffffffffffffffffffffffffffffffffff1614611a1a57600080fd5b611a2333610a05565b611a2c57600080fd5b60076000858152602001908152602001600020600c015480341015611a5057600080fd5b60076000868152602001908152602001600020600c0154336007600088815260200190815260200160002060020160006101000a81548173ffffffffffffffffffffffffffffffffffffffff021916908373ffffffffffffffffffffffffffffffffffffffff160217905550600660076000888152602001908152602001600020600b0160006101000a81548160ff02191690836007811115611af657611af56135a1565b5b02179055508460076000888152602001908152602001600020600e018190555060076000878152602001908152602001600020600b0160019054906101000a900473ffffffffffffffffffffffffffffffffffffffff1673ffffffffffffffffffffffffffffffffffffffff166108fc60076000898152602001908152602001600020600c01549081150290604051600060405180830381858888f19350505050158015611ba8573d6000803e3d6000fd5b507fa8142743f8f70a4c26f3691cf4ed59718381fb2f18070ec52be1f1022d85555786604051611bd891906135d0565b60405180910390a16008600087815260200190815260200160002043908060018154018082558091505060019003906000526020600020016000909190919091505560008134611c28919061374d565b90503373ffffffffffffffffffffffffffffffffffffffff166108fc829081150290604051600060405180830381858888f19350505050158015611c70573d6000803e3d6000fd5b5050505050505050565b6000611c908260036128b690919063ffffffff16565b9050919050565b8160046007811115611cac57611cab6135a1565b5b60076000838152602001908152602001600020600b0160009054906101000a900460ff166007811115611ce257611ce16135a1565b5b14611cec57600080fd5b60076000848152602001908152602001600020600b0160019054906101000a900473ffffffffffffffffffffffffffffffffffffffff168073ffffffffffffffffffffffffffffffffffffffff163373ffffffffffffffffffffffffffffffffffffffff1614611d5b57600080fd5b611d6433611452565b611d6d57600080fd5b611d7683610a05565b611d7f57600080fd5b600560076000868152602001908152602001600020600b0160006101000a81548160ff02191690836007811115611db957611db86135a1565b5b02179055508260076000868152602001908152602001600020600d0160006101000a81548173ffffffffffffffffffffffffffffffffffffffff021916908373ffffffffffffffffffffffffffffffffffffffff1602179055507ff00b9a5725b80c54016f42114f6ed7792d22eecb116011c4afac29c57bef6c9584604051611e4291906135d0565b60405180910390a16008600085815260200190815260200160002043908060018154018082558091505060019003906000526020600020016000909190919091505550505050565b611e9333611c7a565b611e9c57600080fd5b858073ffffffffffffffffffffffffffffffffffffffff163373ffffffffffffffffffffffffffffffffffffffff1614611ed557600080fd5b876000600760008381526020019081526020016000206000015414611ef957600080fd5b60405180610220016040528060065481526020018a81526020018973ffffffffffffffffffffffffffffffffffffffff1681526020018973ffffffffffffffffffffffffffffffffffffffff168152602001888152602001878152602001868152602001858152602001600554600654611f739190613781565b81526020018481526020016000815260200160006007811115611f9957611f986135a1565b5b8152602001600073ffffffffffffffffffffffffffffffffffffffff16815260200160008152602001600073ffffffffffffffffffffffffffffffffffffffff16815260200160008152602001600073ffffffffffffffffffffffffffffffffffffffff16815250600760008b8152602001908152602001600020600082015181600001556020820151816001015560408201518160020160006101000a81548173ffffffffffffffffffffffffffffffffffffffff021916908373ffffffffffffffffffffffffffffffffffffffff16021790555060608201518160030160006101000a81548173ffffffffffffffffffffffffffffffffffffffff021916908373ffffffffffffffffffffffffffffffffffffffff16021790555060808201518160040190805190602001906120d2929190612d60565b5060a08201518160050190805190602001906120ef929190612d60565b5060c082015181600601908051906020019061210c929190612d60565b5060e0820151816007019080519060200190612129929190612d60565b506101008201518160080155610120820151816009019080519060200190612152929190612d60565b5061014082015181600a015561016082015181600b0160006101000a81548160ff0219169083600781111561218a576121896135a1565b5b021790555061018082015181600b0160016101000a81548173ffffffffffffffffffffffffffffffffffffffff021916908373ffffffffffffffffffffffffffffffffffffffff1602179055506101a082015181600c01556101c082015181600d0160006101000a81548173ffffffffffffffffffffffffffffffffffffffff021916908373ffffffffffffffffffffffffffffffffffffffff1602179055506101e082015181600e015561020082015181600f0160006101000a81548173ffffffffffffffffffffffffffffffffffffffff021916908373ffffffffffffffffffffffffffffffffffffffff160217905550905050600160065461228f9190613781565b6006819055507f8e55ccfc9778ff8eba1646d765cf1982537ce0f9257054a17b48aad745250183896040516122c491906135d0565b60405180910390a1600860008a8152602001908152602001600020439080600181540180825580915050600190039060005260206000200160009091909190915055505050505050505050565b8060066007811115612326576123256135a1565b5b60076000838152602001908152602001600020600b0160009054906101000a900460ff16600781111561235c5761235b6135a1565b5b1461236657600080fd5b61236f336110d6565b61237857600080fd5b60076000838152602001908152602001600020600e01548034101561239c57600080fd5b60076000848152602001908152602001600020600e0154336007600086815260200190815260200160002060020160006101000a81548173ffffffffffffffffffffffffffffffffffffffff021916908373ffffffffffffffffffffffffffffffffffffffff1602179055503360076000868152602001908152602001600020600f0160006101000a81548173ffffffffffffffffffffffffffffffffffffffff021916908373ffffffffffffffffffffffffffffffffffffffff1602179055506007806000868152602001908152602001600020600b0160006101000a81548160ff02191690836007811115612496576124956135a1565b5b021790555060076000858152602001908152602001600020600d0160009054906101000a900473ffffffffffffffffffffffffffffffffffffffff1673ffffffffffffffffffffffffffffffffffffffff166108fc60076000878152602001908152602001600020600e01549081150290604051600060405180830381858888f1935050505015801561252d573d6000803e3d6000fd5b507f653d56639fee6b566a5c804764e9689de38645f0b733df89a36a1b7b42173dd88460405161255d91906135d0565b60405180910390a160086000858152602001908152602001600020439080600181540180825580915050600190039060005260206000200160009091909190915055600081346125ad919061374d565b90503373ffffffffffffffffffffffffffffffffffffffff166108fc829081150290604051600060405180830381858888f193505050501580156125f5573d6000803e3d6000fd5b505050505050565b61260633612b64565b565b61261061146f565b61261957600080fd5b61262281612bbe565b50565b806001600781111561263a576126396135a1565b5b60076000838152602001908152602001600020600b0160009054906101000a900460ff1660078111156126705761266f6135a1565b5b1461267a57600080fd5b6007600083815260200190815260200160002060020160009054906101000a900473ffffffffffffffffffffffffffffffffffffffff168073ffffffffffffffffffffffffffffffffffffffff163373ffffffffffffffffffffffffffffffffffffffff16146126e957600080fd5b6126f233611c7a565b6126fb57600080fd5b600260076000858152602001908152602001600020600b0160006101000a81548160ff02191690836007811115612735576127346135a1565b5b02179055507f9b3b66e2380b690bae22c73ef1428fb0c91e72fe14a4b6defa13035214187aff8360405161276991906135d0565b60405180910390a160086000848152602001908152602001600020439080600181540180825580915050600190039060005260206000200160009091909190915055505050565b600073ffffffffffffffffffffffffffffffffffffffff168173ffffffffffffffffffffffffffffffffffffffff1614156127ea57600080fd5b6127f482826128b6565b156127fe57600080fd5b60018260000160008373ffffffffffffffffffffffffffffffffffffffff1673ffffffffffffffffffffffffffffffffffffffff16815260200190815260200160002060006101000a81548160ff0219169083151502179055505050565b6128708160016127b090919063ffffffff16565b8073ffffffffffffffffffffffffffffffffffffffff167f28b26e7a3d20aedbc5f8f2ebf7da671c0491723a2b78f47a097b0e46dee0714260405160405180910390a250565b60008073ffffffffffffffffffffffffffffffffffffffff168273ffffffffffffffffffffffffffffffffffffffff1614156128f157600080fd5b8260000160008373ffffffffffffffffffffffffffffffffffffffff1673ffffffffffffffffffffffffffffffffffffffff16815260200190815260200160002060009054906101000a900460ff16905092915050565b61295c816001612cb590919063ffffffff16565b8073ffffffffffffffffffffffffffffffffffffffff167fe3f5ed5f263f1f01764a96edfc7d025f511ec5f7d180e8816908b78bcf74f09860405160405180910390a250565b6129b6816002612cb590919063ffffffff16565b8073ffffffffffffffffffffffffffffffffffffffff167f126174f6cf49c81cdb4a9214c6b8f037bef55b4ec31e4fc776cea2a1c8a88d5960405160405180910390a250565b612a108160026127b090919063ffffffff16565b8073ffffffffffffffffffffffffffffffffffffffff167fddbf200aa634dc3fb81cfd68583dd1040d1c751d335e1d86b631bde3e977fea860405160405180910390a250565b612a6a8160036127b090919063ffffffff16565b8073ffffffffffffffffffffffffffffffffffffffff167f2e0ded4123377a3c2bc9a26f1717655a129e2f20752924d42e730ec89c83dbd060405160405180910390a250565b612ac4816003612cb590919063ffffffff16565b8073ffffffffffffffffffffffffffffffffffffffff167fa5e0f060af304ab17dd418c7927e3da3ae7868189bf387aee09ab179ccc572f260405160405180910390a250565b612b1e8160046127b090919063ffffffff16565b8073ffffffffffffffffffffffffffffffffffffffff167f71ae26cad02663e3d92efd6ec56031a80d74a20c0ab4183faa8bf262261c9baa60405160405180910390a250565b612b78816004612cb590919063ffffffff16565b8073ffffffffffffffffffffffffffffffffffffffff167fdb7176e79cffef81cb01767dd0447a0b24bb72ca9778d4b245581086b2a7e6db60405160405180910390a250565b600073ffffffffffffffffffffffffffffffffffffffff168173ffffffffffffffffffffffffffffffffffffffff161415612bf857600080fd5b8073ffffffffffffffffffffffffffffffffffffffff1660008054906101000a900473ffffffffffffffffffffffffffffffffffffffff1673ffffffffffffffffffffffffffffffffffffffff167f5c486528ec3e3f0ea91181cff8116f02bfa350e03b8b6f12e00765adbb5af85c60405160405180910390a3806000806101000a81548173ffffffffffffffffffffffffffffffffffffffff021916908373ffffffffffffffffffffffffffffffffffffffff16021790555050565b600073ffffffffffffffffffffffffffffffffffffffff168173ffffffffffffffffffffffffffffffffffffffff161415612cef57600080fd5b612cf982826128b6565b612d0257600080fd5b60008260000160008373ffffffffffffffffffffffffffffffffffffffff1673ffffffffffffffffffffffffffffffffffffffff16815260200190815260200160002060006101000a81548160ff0219169083151502179055505050565b828054612d6c9061361a565b90600052602060002090601f016020900481019282612d8e5760008555612dd5565b82601f10612da757805160ff1916838001178555612dd5565b82800160010185558215612dd5579182015b82811115612dd4578251825591602001919060010190612db9565b5b509050612de29190612de6565b5090565b5b80821115612dff576000816000905550600101612de7565b5090565b6000604051905090565b600080fd5b600080fd5b600073ffffffffffffffffffffffffffffffffffffffff82169050919050565b6000612e4282612e17565b9050919050565b612e5281612e37565b8114612e5d57600080fd5b50565b600081359050612e6f81612e49565b92915050565b600060208284031215612e8b57612e8a612e0d565b5b6000612e9984828501612e60565b91505092915050565b6000819050919050565b612eb581612ea2565b8114612ec057600080fd5b50565b600081359050612ed281612eac565b92915050565b60008060408385031215612eef57612eee612e0d565b5b6000612efd85828601612ec3565b9250506020612f0e85828601612ec3565b9150509250929050565b600060208284031215612f2e57612f2d612e0d565b5b6000612f3c84828501612ec3565b91505092915050565b60008115159050919050565b612f5a81612f45565b82525050565b6000602082019050612f756000830184612f51565b92915050565b612f8481612ea2565b82525050565b600081519050919050565b600082825260208201905092915050565b60005b83811015612fc4578082015181840152602081019050612fa9565b83811115612fd3576000848401525b50505050565b6000601f19601f8301169050919050565b6000612ff582612f8a565b612fff8185612f95565b935061300f818560208601612fa6565b61301881612fd9565b840191505092915050565b61302c81612e37565b82525050565b600061012082019050613048600083018c612f7b565b613055602083018b612f7b565b613062604083018a612f7b565b81810360608301526130748189612fea565b90506130836080830188612f7b565b61309060a0830187612f7b565b61309d60c0830186613023565b6130aa60e0830185613023565b6130b8610100830184613023565b9a9950505050505050505050565b600060a0820190506130db6000830188612f51565b6130e86020830187612f51565b6130f56040830186612f51565b6131026060830185612f51565b61310f6080830184612f51565b9695505050505050565b60006101008201905061312f600083018b612f7b565b61313c602083018a612f7b565b6131496040830189613023565b6131566060830188613023565b81810360808301526131688187612fea565b905081810360a083015261317c8186612fea565b905081810360c08301526131908185612fea565b905081810360e08301526131a48184612fea565b90509998505050505050505050565b6000610160820190506131c9600083018e612f7b565b6131d6602083018d612f7b565b6131e3604083018c612f7b565b6131f0606083018b612f7b565b6131fd608083018a612f7b565b61320a60a0830189612f7b565b61321760c0830188612f7b565b61322460e0830187612f7b565b613232610100830186612f7b565b613240610120830185612f7b565b61324e610140830184612f7b565b9c9b505050505050505050505050565b60006020820190506132736000830184613023565b92915050565b60006101008201905061328f600083018b612f7b565b61329c602083018a612f7b565b6132a96040830189612f7b565b81810360608301526132bb8188612fea565b90506132ca6080830187612f7b565b6132d760a0830186612f7b565b6132e460c0830185612f7b565b6132f160e0830184612f7b565b9998505050505050505050565b6000806040838503121561331557613314612e0d565b5b600061332385828601612ec3565b925050602061333485828601612e60565b9150509250929050565b600080fd5b600080fd5b7f4e487b7100000000000000000000000000000000000000000000000000000000600052604160045260246000fd5b61338082612fd9565b810181811067ffffffffffffffff8211171561339f5761339e613348565b5b80604052505050565b60006133b2612e03565b90506133be8282613377565b919050565b600067ffffffffffffffff8211156133de576133dd613348565b5b6133e782612fd9565b9050602081019050919050565b82818337600083830152505050565b6000613416613411846133c3565b6133a8565b90508281526020810184848401111561343257613431613343565b5b61343d8482856133f4565b509392505050565b600082601f83011261345a5761345961333e565b5b813561346a848260208601613403565b91505092915050565b600080600080600080600060e0888a03121561349257613491612e0d565b5b60006134a08a828b01612ec3565b97505060206134b18a828b01612e60565b965050604088013567ffffffffffffffff8111156134d2576134d1612e12565b5b6134de8a828b01613445565b955050606088013567ffffffffffffffff8111156134ff576134fe612e12565b5b61350b8a828b01613445565b945050608088013567ffffffffffffffff81111561352c5761352b612e12565b5b6135388a828b01613445565b93505060a088013567ffffffffffffffff81111561355957613558612e12565b5b6135658a828b01613445565b92505060c088013567ffffffffffffffff81111561358657613585612e12565b5b6135928a828b01613445565b91505092959891949750929550565b7f4e487b7100000000000000000000000000000000000000000000000000000000600052602160045260246000fd5b60006020820190506135e56000830184612f7b565b92915050565b7f4e487b7100000000000000000000000000000000000000000000000000000000600052602260045260246000fd5b6000600282049050600182168061363257607f821691505b60208210811415613646576136456135eb565b5b50919050565b7f4e487b7100000000000000000000000000000000000000000000000000000000600052601160045260246000fd5b600061368682612ea2565b915061369183612ea2565b9250817fffffffffffffffffffffffffffffffffffffffffffffffffffffffffffffffff04831182151516156136ca576136c961364c565b5b828202905092915050565b7f4e487b7100000000000000000000000000000000000000000000000000000000600052603260045260246000fd5b600061370f82612ea2565b91507fffffffffffffffffffffffffffffffffffffffffffffffffffffffffffffffff8214156137425761374161364c565b5b600182019050919050565b600061375882612ea2565b915061376383612ea2565b9250828210156137765761377561364c565b5b828203905092915050565b600061378c82612ea2565b915061379783612ea2565b9250827fffffffffffffffffffffffffffffffffffffffffffffffffffffffffffffffff038211156137cc576137cb61364c565b5b82820190509291505056fea26469706673582212209f973ec322a5fbc610dadc8237b92b988a4096c4a84d0f351d3ef988b7ef12c764736f6c634300080a0033",
  "immutableReferences": {},
  "source": "pragma solidity >=0.8.10;\r\n\r\n// import roles\r\nimport \"../coffeeaccesscontrol/ConsumerRole.sol\";\r\nimport \"../coffeeaccesscontrol/DistributorRole.sol\";\r\nimport \"../coffeeaccesscontrol/FarmerRole.sol\";\r\nimport \"../coffeeaccesscontrol/RetailerRole.sol\";\r\nimport \"../coffeecore/Ownable.sol\";\r\n\r\n// Define a contract 'Supplychain'\r\ncontract SupplyChain is Ownable, ConsumerRole, DistributorRole, FarmerRole, RetailerRole {\r\n\r\n  // Define a variable called 'upc' for Universal Product Code (UPC)\r\n  uint  upc;\r\n\r\n  // Define a variable called 'sku' for Stock Keeping Unit (SKU)\r\n  uint  sku;\r\n\r\n  // Define a public mapping 'items' that maps the UPC to an Item.\r\n  mapping (uint => Item) items;\r\n\r\n  // Define a public mapping 'itemsHistory' that maps the UPC to an array of blocknumbers, \r\n  // that track its journey through the supply chain.\r\n  mapping (uint => uint[]) itemsHistory;\r\n  \r\n  // Define enum 'State' with the following values:\r\n  enum State \r\n  { \r\n    Harvested,  // 0\r\n    Processed,  // 1\r\n    Packed,     // 2\r\n    ForSale,    // 3\r\n    Sold,       // 4\r\n    Shipped,    // 5\r\n    Received,   // 6\r\n    Purchased   // 7\r\n    }\r\n\r\n  State constant defaultState = State.Harvested;\r\n\r\n  // Define a struct 'Item' with the following fields:\r\n  struct Item {\r\n    uint    sku;  // Stock Keeping Unit (SKU)\r\n    uint    upc; // Universal Product Code (UPC), generated by the Farmer, goes on the package, can be verified by the Consumer\r\n    address ownerID;  // Metamask-Ethereum address of the current owner as the product moves through 8 stages\r\n    address originFarmerID; // Metamask-Ethereum address of the Farmer\r\n    string  originFarmName; // Farmer Name\r\n    string  originFarmInformation;  // Farmer Information\r\n    string  originFarmLatitude; // Farm Latitude\r\n    string  originFarmLongitude;  // Farm Longitude\r\n    uint    productID;  // Product ID potentially a combination of upc + sku\r\n    string  productNotes; // Product Notes\r\n    uint    productPrice; // Product Price\r\n    State   itemState;  // Product State as represented in the enum above\r\n    address distributorID;  // Metamask-Ethereum address of the Distributor\r\n    uint    retailerPrice; // Reseller price for the retailer set by the distributor\r\n    address retailerID; // Metamask-Ethereum address of the Retailer\r\n    uint    consumerPrice; // Reseller price for the consumer set by the retailer\r\n    address consumerID; // Metamask-Ethereum address of the Consumer\r\n  }\r\n\r\n  // Define 8 events with the same 8 state values and accept 'upc' as input argument\r\n  event Harvested(uint upc);\r\n  event Processed(uint upc);\r\n  event Packed(uint upc);\r\n  event ForSale(uint upc);\r\n  event Sold(uint upc);\r\n  event Shipped(uint upc);\r\n  event Received(uint upc);\r\n  event Purchased(uint upc);\r\n\r\n  // Define a modifer that verifies the Caller\r\n  modifier verifyCaller (address _address) {\r\n    require(msg.sender == _address); \r\n    _;\r\n  }\r\n\r\n  // Define a modifier that checks if the paid amount is sufficient to cover the price\r\n  modifier paidEnough(uint _price) { \r\n    require(msg.value >= _price); \r\n    _;\r\n  }\r\n  \r\n  // Define a modifier that checks the price and refunds the remaining balance\r\n  modifier checkValue(uint _price) {\r\n    _;\r\n    uint amountToReturn = msg.value - _price;\r\n    payable(msg.sender).transfer(amountToReturn);\r\n  }\r\n\r\n  // Define a modifier that checks if an item.state of a upc is Harvested\r\n  modifier harvested(uint _upc) {\r\n    require(items[_upc].itemState == State.Harvested);\r\n    _;\r\n  }\r\n\r\n  // Define a modifier that checks if an item.state of a upc is Processed\r\n  modifier processed(uint _upc) {\r\n    require(items[_upc].itemState == State.Processed);\r\n    _;\r\n  }\r\n  \r\n  // Define a modifier that checks if an item.state of a upc is Packed\r\n  modifier packed(uint _upc) {\r\n    require(items[_upc].itemState == State.Packed);\r\n    _;\r\n  }\r\n\r\n  // Define a modifier that checks if an item.state of a upc is ForSale\r\n  modifier forSale(uint _upc) {\r\n    require(items[_upc].itemState == State.ForSale);\r\n    _;\r\n  }\r\n\r\n  // Define a modifier that checks if an item.state of a upc is Sold\r\n  modifier sold(uint _upc) {\r\n    require(items[_upc].itemState == State.Sold);\r\n    _;\r\n  }\r\n  \r\n  // Define a modifier that checks if an item.state of a upc is Shipped\r\n  modifier shipped(uint _upc) {\r\n    require(items[_upc].itemState == State.Shipped);\r\n    _;\r\n  }\r\n\r\n  // Define a modifier that checks if an item.state of a upc is Received\r\n  modifier received(uint _upc) {\r\n    require(items[_upc].itemState == State.Received);\r\n    _;\r\n  }\r\n\r\n  // Define a modifier that checks if an item.state of a upc is Purchased\r\n  modifier purchased(uint _upc) {\r\n    require(items[_upc].itemState == State.Purchased);\r\n    _;\r\n  }\r\n\r\n  // Define a modifier that checks if an UPC is still available\r\n  modifier upcAvailable(uint _upc) {\r\n    require(items[_upc].sku == 0);\r\n    _;\r\n  }\r\n\r\n  // and set 'sku' to 1\r\n  // and set 'upc' to 1\r\n  constructor() payable {\r\n    sku = 1;\r\n    upc = 1;\r\n  }\r\n\r\n  // Define a function 'harvestItem' that allows a farmer to mark an item 'Harvested'\r\n  function harvestItem(uint _upc, address _originFarmerID, string memory _originFarmName, string memory _originFarmInformation, string  memory _originFarmLatitude, string  memory _originFarmLongitude, string  memory _productNotes) public\r\n  // make sure we are a farmer\r\n  onlyFarmer()\r\n  // _originFarmerID must match current sender\r\n  verifyCaller(_originFarmerID)\r\n  // upc must not yet exist\r\n  upcAvailable(_upc)\r\n  {\r\n    // Add the new item as part of Harvest\r\n    items[_upc] = Item({\r\n      sku: sku,  // Stock Keeping Unit (SKU)\r\n      upc: _upc, // Universal Product Code (UPC), generated by the Farmer, goes on the package, can be verified by the Consumer\r\n      ownerID: _originFarmerID,  // Metamask-Ethereum address of the current owner as the product moves through 8 stages\r\n      originFarmerID: _originFarmerID, // Metamask-Ethereum address of the Farmer\r\n      originFarmName: _originFarmName, // Farmer Name\r\n      originFarmInformation: _originFarmInformation,  // Farmer Information\r\n      originFarmLatitude: _originFarmLatitude, // Farm Latitude\r\n      originFarmLongitude:_originFarmLongitude,  // Farm Longitude\r\n      productID: sku + upc,  // Product ID potentially a combination of upc + sku\r\n      productNotes: _productNotes, // Product Notes\r\n      productPrice: 0, // Product Price\r\n      itemState: defaultState,  // Product State as represented in the enum above\r\n      distributorID: address(0x0),  // Metamask-Ethereum address of the Distributor\r\n      retailerPrice: 0, // Reseller price for the retailer set by the distributor\r\n      retailerID: address(0x0), // Metamask-Ethereum address of the Retailer\r\n      consumerPrice: 0, // Reseller price for the consumer set by the retailer\r\n      consumerID: address(0x0) // Metamask-Ethereum address of the Consumer\r\n    });\r\n    \r\n    // Increment sku\r\n    sku = sku + 1;\r\n\r\n    // Emit the appropriate event\r\n    emit Harvested(_upc);\r\n\r\n    // Add to transaction history\r\n    itemsHistory[_upc].push(block.number);\r\n  }\r\n\r\n  // Define a function 'processtItem' that allows a farmer to mark an item 'Processed'\r\n  function processItem(uint _upc) public \r\n  // Call modifier to check if upc has passed previous supply chain stage\r\n  harvested(_upc)\r\n  // Call modifier to verify caller of this function\r\n  verifyCaller(items[_upc].ownerID)\r\n  onlyFarmer()\r\n  {\r\n    // Update the appropriate fields\r\n    items[_upc].itemState = State.Processed;\r\n    \r\n    // Emit the appropriate event\r\n    emit Processed(_upc);\r\n\r\n    // Add to transaction history\r\n    itemsHistory[_upc].push(block.number);\r\n  }\r\n\r\n  // Define a function 'packItem' that allows a farmer to mark an item 'Packed'\r\n  function packItem(uint _upc) public \r\n  // Call modifier to check if upc has passed previous supply chain stage\r\n  processed(_upc)\r\n  // Call modifier to verify caller of this function\r\n  verifyCaller(items[_upc].ownerID)\r\n  onlyFarmer()\r\n  {\r\n    // Update the appropriate fields\r\n    items[_upc].itemState = State.Packed;  \r\n    \r\n    // Emit the appropriate event\r\n    emit Packed(_upc);\r\n\r\n    // Add to transaction history\r\n    itemsHistory[_upc].push(block.number);\r\n  }\r\n\r\n  // Define a function 'sellItem' that allows a farmer to mark an item 'ForSale'\r\n  function sellItem(uint _upc, uint _price) public \r\n  // Call modifier to check if upc has passed previous supply chain stage\r\n  packed(_upc)\r\n  // Call modifier to verify caller of this function\r\n  verifyCaller(items[_upc].ownerID)\r\n  onlyFarmer()\r\n  {\r\n    // Update the appropriate fields\r\n    items[_upc].itemState = State.ForSale;\r\n    items[_upc].productPrice = _price;\r\n    \r\n    // Emit the appropriate event\r\n    emit ForSale(_upc);\r\n\r\n    // Add to transaction history\r\n    itemsHistory[_upc].push(block.number);\r\n  }\r\n\r\n  // Define a function 'buyItem' that allows the disributor to mark an item 'Sold'\r\n  // Use the above defined modifiers to check if the item is available for sale, if the buyer has paid enough, \r\n  // and any excess ether sent is refunded back to the buyer\r\n  function buyItem(uint _upc, uint _retailerPrice) public payable \r\n    // Call modifier to check if upc has passed previous supply chain stage\r\n    forSale(_upc)\r\n    // only distributors are allowed to buy the items\r\n    onlyDistributor()\r\n    // Call modifer to check if buyer has paid enough\r\n    paidEnough(items[_upc].productPrice)\r\n    // Call modifer to send any excess ether back to buyer\r\n    checkValue(items[_upc].productPrice)\r\n    {\r\n    // Update the appropriate fields - ownerID, distributorID, itemState\r\n    items[_upc].ownerID = msg.sender;\r\n    items[_upc].distributorID = msg.sender;\r\n    items[_upc].itemState = State.Sold;\r\n    items[_upc].retailerPrice = _retailerPrice;\r\n\r\n    // Transfer money to farmer\r\n    payable(items[_upc].originFarmerID).transfer(items[_upc].productPrice);\r\n    \r\n    // emit the appropriate event\r\n    emit Sold(_upc);\r\n\r\n    // Add to transaction history\r\n    itemsHistory[_upc].push(block.number);\r\n  }\r\n\r\n  // Define a function 'shipItem' that allows the distributor to mark an item 'Shipped'\r\n  // Use the above modifers to check if the item is sold\r\n  function shipItem(uint _upc, address _retailerID) public\r\n    // Call modifier to check if upc has passed previous supply chain stage\r\n    sold(_upc)\r\n    // Call modifier to verify caller of this function\r\n    verifyCaller(items[_upc].distributorID)\r\n    onlyDistributor()\r\n    {\r\n    // retailer must have the associated role\r\n    require(isRetailer(_retailerID));\r\n\r\n    // Update the appropriate fields\r\n    items[_upc].itemState = State.Shipped;\r\n    items[_upc].retailerID = _retailerID;\r\n    \r\n    // Emit the appropriate event\r\n    emit Shipped(_upc);\r\n\r\n    // Add to transaction history\r\n    itemsHistory[_upc].push(block.number);\r\n  }\r\n\r\n  // Define a function 'receiveItem' that allows the retailer to mark an item 'Received'\r\n  // Use the above modifiers to check if the item is shipped\r\n  function receiveItem(uint _upc, uint _consumerPrice) public payable\r\n    // Call modifier to check if upc has passed previous supply chain stage\r\n    shipped(_upc)\r\n    // Access Control List enforced by calling Smart Contract / DApp\r\n    verifyCaller(items[_upc].retailerID)\r\n    onlyRetailer()\r\n    // Call modifer to check if buyer has paid enough\r\n    paidEnough(items[_upc].retailerPrice)\r\n    // Call modifer to send any excess ether back to buyer\r\n    checkValue(items[_upc].retailerPrice)\r\n    {\r\n    // Update the appropriate fields - ownerID, retailerID, itemState\r\n    items[_upc].ownerID = msg.sender;\r\n    items[_upc].itemState = State.Received;\r\n    items[_upc].consumerPrice = _consumerPrice;\r\n\r\n    // retailerID is already updates when the item is shipped, otherwise any retailer could mark not yet received\r\n    // items as received by them (even if they were shipped to another retailer)\r\n    \r\n    // items[_upc].retailerID = msg.sender;\r\n\r\n    // Transfer money to distributor\r\n    payable(items[_upc].distributorID).transfer(items[_upc].retailerPrice);\r\n\r\n    // Emit the appropriate event\r\n    emit Received(_upc);\r\n\r\n    // Add to transaction history\r\n    itemsHistory[_upc].push(block.number);\r\n  }\r\n\r\n  // Define a function 'purchaseItem' that allows the consumer to mark an item 'Purchased'\r\n  // Use the above modifiers to check if the item is received\r\n  function purchaseItem(uint _upc) public payable\r\n    // Call modifier to check if upc has passed previous supply chain stage\r\n    received(_upc)\r\n    // Access Control List enforced by calling Smart Contract / DApp\r\n    onlyConsumer()\r\n    // Call modifer to check if buyer has paid enough\r\n    paidEnough(items[_upc].consumerPrice)\r\n    // Call modifer to send any excess ether back to buyer\r\n    checkValue(items[_upc].consumerPrice)\r\n    {\r\n    // Update the appropriate fields - ownerID, consumerID, itemState\r\n    items[_upc].ownerID = msg.sender;\r\n    items[_upc].consumerID = msg.sender;\r\n    items[_upc].itemState = State.Purchased;\r\n\r\n    // Transfer money to retailer\r\n    payable(items[_upc].retailerID).transfer(items[_upc].consumerPrice);\r\n\r\n    // Emit the appropriate event\r\n    emit Purchased(_upc);\r\n\r\n    // Add to transaction history\r\n    itemsHistory[_upc].push(block.number);\r\n  }\r\n\r\n  // Define a function 'getRoles' that will return information on which roles the current\r\n  // caller has\r\n  function getRoles() public view returns\r\n  (\r\n    bool  owner,\r\n    bool  farmer,\r\n    bool  distributor,\r\n    bool  retailer,\r\n    bool  consumer\r\n  )\r\n  {\r\n    owner = isOwner();\r\n    farmer = isFarmer(msg.sender);\r\n    distributor = isDistributor(msg.sender);\r\n    retailer = isRetailer(msg.sender);\r\n    consumer = isConsumer(msg.sender);\r\n\r\n    return (\r\n      owner,\r\n      farmer,\r\n      distributor,\r\n      retailer,\r\n      consumer\r\n    );\r\n  }\r\n\r\n  // Define a function 'fetchItemBufferOne' that fetches the data\r\n  function fetchItemBufferOne(uint _upc) public view returns \r\n  (\r\n  uint    itemSKU,\r\n  uint    itemUPC,\r\n  address ownerID,\r\n  address originFarmerID,\r\n  string memory originFarmName,\r\n  string memory originFarmInformation,\r\n  string memory originFarmLatitude,\r\n  string memory originFarmLongitude\r\n  ) \r\n  {\r\n  // Assign values to the 8 parameters\r\n  itemSKU = items[_upc].sku;\r\n  itemUPC = items[_upc].upc;\r\n  ownerID = items[_upc].ownerID;\r\n  originFarmerID = items[_upc].originFarmerID;\r\n  originFarmName = items[_upc].originFarmName;\r\n  originFarmInformation = items[_upc].originFarmInformation;\r\n  originFarmLatitude = items[_upc].originFarmLatitude;\r\n  originFarmLongitude = items[_upc].originFarmLongitude;\r\n    \r\n  return \r\n  (\r\n  itemSKU,\r\n  itemUPC,\r\n  ownerID,\r\n  originFarmerID,\r\n  originFarmName,\r\n  originFarmInformation,\r\n  originFarmLatitude,\r\n  originFarmLongitude\r\n  );\r\n  }\r\n\r\n  // Define a function 'fetchItemBufferTwo' that fetches the data\r\n  function fetchItemBufferTwo(uint _upc) public view returns \r\n  (\r\n  uint    itemSKU,\r\n  uint    itemUPC,\r\n  uint    productID,\r\n  string memory productNotes,\r\n  uint    productPrice,\r\n  uint    itemState,\r\n  address distributorID,\r\n  address retailerID,\r\n  address consumerID\r\n  ) \r\n  {\r\n    // Assign values to the 9 parameters\r\n  itemSKU = items[_upc].sku;\r\n  itemUPC = items[_upc].upc;\r\n  productID = items[_upc].productID;\r\n  productNotes = items[_upc].productNotes;\r\n  productPrice = items[_upc].productPrice;\r\n  itemState = uint(items[_upc].itemState);\r\n  distributorID = items[_upc].distributorID;\r\n  retailerID = items[_upc].retailerID;\r\n  consumerID = items[_upc].consumerID;\r\n    \r\n  return \r\n  (\r\n  itemSKU,\r\n  itemUPC,\r\n  productID,\r\n  productNotes,\r\n  productPrice,\r\n  itemState,\r\n  distributorID,\r\n  retailerID,\r\n  consumerID\r\n  );\r\n  }\r\n\r\n  // Define a function 'fetchItemBufferThree' that fetches the data\r\n  function fetchItemBufferThree(uint _upc) public view returns \r\n  (\r\n  uint    itemSKU,\r\n  uint    itemUPC,\r\n  uint    productID,\r\n  string memory productNotes,\r\n  uint    productPrice,\r\n  uint    retailerPrice,\r\n  uint    consumerPrice,\r\n  uint   itemState\r\n  ) \r\n  {\r\n    // Assign values to the 9 parameters\r\n  itemSKU = items[_upc].sku;\r\n  itemUPC = items[_upc].upc;\r\n  productID = items[_upc].productID;\r\n  productNotes = items[_upc].productNotes;\r\n  productPrice = items[_upc].productPrice;\r\n  retailerPrice = items[_upc].retailerPrice;\r\n  consumerPrice = items[_upc].consumerPrice;\r\n  itemState = uint(items[_upc].itemState);\r\n    \r\n  return \r\n  (\r\n  itemSKU,\r\n  itemUPC,\r\n  productID,\r\n  productNotes,\r\n  productPrice,\r\n  retailerPrice,\r\n  consumerPrice,\r\n  itemState\r\n  );\r\n  }\r\n\r\n  // Define a function that will return the blocknumbers involed within an items lifecycle\r\n  function getItemsHistory(uint _upc, uint _page)  public view returns (\r\n    uint totalTransactions, \r\n    uint blockNo1, \r\n    uint blockNo2, \r\n    uint blockNo3, \r\n    uint blockNo4, \r\n    uint blockNo5, \r\n    uint blockNo6, \r\n    uint blockNo7, \r\n    uint blockNo8, \r\n    uint blockNo9, \r\n    uint blockNo10\r\n  ) {\r\n    totalTransactions = itemsHistory[_upc].length;\r\n\r\n    uint offset = _page * 10;\r\n\r\n    if(totalTransactions > offset) {\r\n      blockNo1 = itemsHistory[_upc][offset];\r\n    }\r\n    offset++;\r\n    \r\n    if(totalTransactions > offset) {\r\n      blockNo2 = itemsHistory[_upc][offset];\r\n    }\r\n    offset++;\r\n    \r\n    if(totalTransactions > offset) {\r\n      blockNo3 = itemsHistory[_upc][offset];\r\n    }\r\n    offset++;\r\n    \r\n    if(totalTransactions > offset) {\r\n      blockNo4 = itemsHistory[_upc][offset];\r\n    }\r\n    offset++;\r\n    \r\n    if(totalTransactions > offset) {\r\n      blockNo5 = itemsHistory[_upc][offset];\r\n    }\r\n    offset++;\r\n    \r\n    if(totalTransactions > offset) {\r\n      blockNo6 = itemsHistory[_upc][offset];\r\n    }\r\n    offset++;\r\n    \r\n    if(totalTransactions > offset) {\r\n      blockNo7 = itemsHistory[_upc][offset];\r\n    }\r\n    offset++;\r\n    \r\n    if(totalTransactions > offset) {\r\n      blockNo8 = itemsHistory[_upc][offset];\r\n    }\r\n    offset++;\r\n    \r\n    if(totalTransactions > offset) {\r\n      blockNo9 = itemsHistory[_upc][offset];\r\n    }\r\n    offset++;\r\n    \r\n    if(totalTransactions > offset) {\r\n      blockNo10 = itemsHistory[_upc][offset];\r\n    }\r\n\r\n    return (\r\n      totalTransactions, \r\n      blockNo1, \r\n      blockNo2, \r\n      blockNo3, \r\n      blockNo4, \r\n      blockNo5, \r\n      blockNo6, \r\n      blockNo7, \r\n      blockNo8, \r\n      blockNo9, \r\n      blockNo10\r\n    );\r\n  }\r\n}",
  "sourcePath": "E:\\Udacity\\blockchain-developer\\project\\eth\\contracts\\coffebase\\SupplyChain.sol",
  "compiler": {
    "name": "solc",
    "version": "0.8.10+commit.fc410830.Emscripten.clang"
  },
  "schemaVersion": "3.4.3",
  "updatedAt": "2021-12-01T20:55:00.760Z",
  "networkType": "ethereum",
  "devdoc": {
    "kind": "dev",
    "methods": {},
    "version": 1
  },
  "userdoc": {
    "kind": "user",
    "methods": {
      "isOwner()": {
        "notice": "Check if the calling address is the owner of the contract"
      },
      "owner()": {
        "notice": "Look up the address of the owner"
      },
      "renounceOwnership()": {
        "notice": "Define a function to renounce ownerhip"
      },
      "transferOwnership(address)": {
        "notice": "Define a public function to transfer ownership"
      }
    },
    "version": 1
  }
}